:100000000C942A000C9447000C9447000C94470071
:100010000C9447000C9447000C9447000C94470044
:100020000C9447000C941D030C9447000C9447005B
:100030000C9447000C9447000C9447000C94470024
:100040000C9447000C9447000C9447000C94470014
:100050000C94470011241FBECFE5D8E0DEBFCDBF12
:1000600010E0A0E6B0E0E8E4FFE002C005900D92E9
:10007000A237B107D9F720E0A2E7B0E001C01D9296
:10008000A637B207E1F70E9490030C94A2070C94E4
:100090000000672B09F0DFC0009721F48BB38E7F3F
:1000A0008BBB08958130910521F48BB38D7F8BBB81
:1000B00008958230910521F48BB38B7F8BBB08951B
:1000C0008330910521F48BB3877F8BBB08958430F7
:1000D000910521F48BB38F7E8BBB089585309105FC
:1000E00021F48BB38F7D8BBB08958630910521F46D
:1000F0008BB38F7B8BBB08958730910521F48BB335
:100100008F778BBB08958A30910521F488B38E7F59
:1001100088BB08958B30910521F488B38D7F88BB0F
:1001200008958C30910521F488B38B7F88BB0895A6
:100130008D30910521F488B3877F88BB08958E3078
:10014000910521F488B38F7E88BB08958F30910587
:1001500021F488B38F7D88BB08958031910521F407
:1001600088B38F7B88BB08958131910521F488B3D2
:100170008F7788BB08958431910521F485B38E7FF4
:1001800085BB08958531910521F485B38D7F85BBAD
:1001900008958631910521F485B38B7F85BB089541
:1001A0008731910521F485B3877F85BB0895883118
:1001B000910521F485B38F7E85BB08958931910522
:1001C00021F485B38F7D85BB08958A31910521F493
:1001D00085B38F7B85BB08958B31910521F485B361
:1001E0008F7785BB08958E31910521F482B38E7F80
:1001F00082BB08958F31910521F482B38D7F82BB3C
:1002000008958032910521F482B38B7F82BB0895DB
:100210008132910521F482B3877F82BB08958232B7
:10022000910521F482B38F7E82BB089583329105BC
:1002300021F482B38F7D82BB08958432910521F42D
:1002400082B38F7B82BB0895859709F0E1C082B3AA
:100250008F7782BB0895009721F48BB381608BBBAD
:1002600008958130910521F48BB382608BBB089592
:100270008230910521F48BB384608BBB0895833069
:10028000910521F48BB388608BBB08958430910570
:1002900021F48BB380618BBB08958530910521F4E7
:1002A0008BB380628BBB08958630910521F48BB3AC
:1002B00080648BBB08958730910521F48BB38068EF
:1002C0008BBB08958A30910521F488B3816088BB87
:1002D00008958B30910521F488B3826088BB08951E
:1002E0008C30910521F488B3846088BB08958D30EB
:1002F000910521F488B3886088BB08958E309105FC
:1003000021F488B3806188BB08958F30910521F472
:1003100088B3806288BB08958031910521F488B349
:10032000806488BB08958131910521F488B3806889
:1003300088BB08958431910521F485B3816085BB24
:1003400008958531910521F485B3826085BB0895B8
:100350008631910521F485B3846085BB089587318A
:10036000910521F485B3886085BB08958831910596
:1003700021F485B3806185BB08958931910521F40D
:1003800085B3806285BB08958A31910521F485B3D8
:10039000806485BB08958B31910521F485B3806815
:1003A00085BB08958E31910521F482B3816082BBB3
:1003B00008958F31910521F482B3826082BB089544
:1003C0008032910521F482B3846082BB089581322A
:1003D000910521F482B3886082BB08958232910531
:1003E00021F482B3806182BB08958332910521F4A8
:1003F00082B3806282BB08958432910521F482B376
:10040000806482BB0895859719F482B3806882BBAB
:100410000895CF93C82F80FF07C061E070E082E2AB
:1004200090E00E94490006C060E070E082E290E047
:100430000E944900C1FF07C061E070E083E290E0E4
:100440000E94490006C060E070E083E290E00E94F4
:100450004900C2FF07C061E070E084E290E00E94C2
:10046000490006C060E070E084E290E00E9449002C
:10047000C3FF07C061E070E085E290E00E944900A0
:1004800006C060E070E085E290E00E944900CF91F4
:100490000895CF93C82F60E070E08AE190E00E9459
:1004A00049008C2F0E94090261E070E08BE190E02E
:1004B0000E94490089EF90E00197F1F700C0000029
:1004C00060E070E08BE190E00E94490089EF90E0ED
:1004D0000197F1F700C00000CF910895CF938130CC
:1004E00061F480E8860FC62FCF7082958F700E94CE
:1004F00049028C2F0E9449020DC0823059F480ECD1
:10050000860FC62FCF7082958F700E9449028C2F64
:100510000E944902CF91089580E00E94090287E875
:1005200093E10197F1F700C0000083E00E944902C7
:1005300081EE94E00197F1F700C0000083E00E9493
:1005400049028DEB9AE00197F1F700C0000083E0CB
:100550000E94490282E00E94490282E00E94490210
:1005600088E00E94490280E00E9449028CE00E94DB
:10057000490280E00E94490286E00E9449020895F3
:10058000CF93DF93D82FDF70C82FC07F61E070E07A
:100590008AE190E00E9449008C2F82958F700E9422
:1005A000090261E070E08BE190E00E94490089EF70
:1005B00090E00197F1F700C0000060E070E08BE18F
:1005C00090E00E94490089EF90E00197F1F700C0A8
:1005D00000008D2F0E94090261E070E08BE190E045
:1005E0000E94490089EF90E00197F1F700C00000F8
:1005F00060E070E08BE190E00E94490089EF90E0BC
:100600000197F1F700C00000DF91CF9108950F939B
:100610001F93CF93DF938C01C0E0D0E003C00E9412
:10062000C0022196F801EC0FFD1F80818111F7CFE8
:10063000DF91CF911F910F9108951F920F920FB6E6
:100640000F9211248F939F93809174009091750065
:10065000019690937500809374008091740090913E
:10066000750040976CF08091720090917300019634
:100670009093730080937200109275001092740032
:100680009F918F910F900FBE0F901F90189582E051
:100690008BB988E08AB986E880BD10BC8CE089B946
:1006A000089584B190E065B170E025B128BB660F74
:1006B000771F660F771F082E892F000C881F990B54
:1006C000000C881F991F680F791F072E000C880BDC
:1006D000990B0E944B0620E030E040EA5BE30E9469
:1006E000000720E030E048EC52E40E94000720E0E0
:1006F00030E040E05FE30E9430050E941306072EC1
:10070000000C880B990B0E944B0620E030E048EC6F
:1007100052E40E94A10508955D9BFECF8CB9089517
:10072000CF93DF93CDB7DEB761970FB6F894DEBFF6
:100730000FBECDBF10927300109272001092750020
:100740001092740080E090E00CC0FC01EE0FFF1FDF
:1007500021E030E02C0F3D1FE20FF31F14861386BB
:100760000196833091058CF380E090E00EC0FC018F
:10077000EE0FFF1F41E050E04C0F5D1FE40FF51F2F
:1007800021E030E0318320830196833091057CF3B2
:100790008FEF87BB81BB84BB87E687B986E886B9C4
:1007A0000E948C021FBC81E08EBD84E089BF7894DA
:1007B0000E94470387E687B900E010E058C086B181
:1007C000806486B93699FECF0E9451034B015C01CB
:1007D00087B1815087B9F801EE0FFF1F81E090E0EB
:1007E0008C0F9D1FE80FF91FE080F180E114F104E8
:1007F00009F520E030E040E050E4C501B4010E947A
:100800009C058823BCF4F801EE0FFF1F21E030E0C7
:100810002C0F3D1FE20FF31F83859485019694876B
:100820008387109273001092720081E090E09183B0
:1008300080831BC0EF28C9F020E030E040E050E4A6
:10084000C501B4010E94FB0618167CF410927300D7
:1008500010927200F801EE0FFF1F41E050E04C0FC4
:100860005D1FE40FF51F118210820F5F1F4F0330D1
:1008700011050CF4A4CF20E030E080E090E00EC041
:10088000FC01EE0FFF1F41E050E04C0F5D1FE40F35
:10089000F51F40815181240F351F0196833091054A
:1008A0007CF38091720090917300079784F1211579
:1008B000310569F5109273001092720080E090E0AB
:1008C0000CC0FC01EE0FFF1F21E030E02C0F3D1F9C
:1008D000E20FF31F148613860196833091058CF383
:1008E00080E090E00EC0FC01EE0FFF1F41E050E001
:1008F0004C0F5D1FE40FF51F21E030E031832083B2
:100900000196833091057CF387E687B967C08091B3
:1009100072009091730007970CF460C0232B09F4C8
:100920005DC010927300109272008889998944E624
:10093000489F9001499F300D11248E859F85AC0101
:10094000440F551F880F991F880F991F880F991FF3
:10095000840F951F820F931F2C853D854AE0BE01B1
:10096000695F7F4F820F931F0E946D0700E010E0C8
:1009700004C00E948C030F5F1F4FE7E0F0E0EC0F14
:10098000FD1FE00FF11F80818111F3CF80E090E027
:100990000CC0FC01EE0FFF1F21E030E02C0F3D1FCB
:1009A000E20FF31F148613860196833091058CF3B2
:1009B00087E687B980E090E00EC0FC01EE0FFF1FD4
:1009C00041E050E04C0F5D1FE40FF51F21E030E0E7
:1009D000318320830196833091057CF361E081E0CF
:1009E0000E946E024AE0BE01695F7F4F81E090E0A5
:1009F0000E946D0780E690E00E940703CE010796F3
:100A00000E94070361E082E00E946E028AE690E0A5
:100A10000E9407034AE0BE01695F7F4F8889998978
:100A20000E946D07CE0107960E9407034AE0BE01AF
:100A3000695F7F4F8E859F850E946D07CE01079667
:100A40000E9407034AE0BE01695F7F4F8C859D8548
:100A50000E946D07CE0107960E940703ABCE505847
:100A6000BB27AA270E9447050C94C1060E94B30623
:100A700038F00E94BA0620F039F49F3F19F426F4AA
:100A80000C94B0060EF4E095E7FB0C94AA06E92F4F
:100A90000E94D20658F3BA176207730784079507B6
:100AA00020F079F4A6F50C94F4060EF4E0950B2EE4
:100AB000BA2FA02D0B01B90190010C01CA01A001B0
:100AC0001124FF27591B99F0593F50F4503E68F10B
:100AD0001A16F040A22F232F342F4427585FF3CF4C
:100AE000469537952795A795F0405395C9F77EF41D
:100AF0001F16BA0B620B730B840BBAF09150A1F066
:100B0000FF0FBB1F661F771F881FC2F70EC0BA0FEB
:100B1000621F731F841F48F4879577956795B79573
:100B2000F7959E3F08F0B0CF9395880F08F099276E
:100B3000EE0F9795879508950E94860608F481E048
:100B400008950E94B5050C94C1060E94BA0658F09B
:100B50000E94B30640F029F45F3F29F00C94AA06E6
:100B600051110C94F5060C94B0060E94D20668F35D
:100B70009923B1F3552391F3951B550BBB27AA2756
:100B800062177307840738F09F5F5F4F220F331F90
:100B9000441FAA1FA9F335D00E2E3AF0E0E832D058
:100BA00091505040E695001CCAF72BD0FE2F29D05B
:100BB000660F771F881FBB1F261737074807AB072D
:100BC000B0E809F0BB0B802DBF01FF2793585F4FA2
:100BD0003AF09E3F510578F00C94AA060C94F50665
:100BE0005F3FE4F3983ED4F3869577956795B79584
:100BF000F7959F5FC9F7880F911D9695879597F98F
:100C00000895E1E0660F771F881FBB1F6217730707
:100C10008407BA0720F0621B730B840BBA0BEE1F1C
:100C200088F7E09508950E941A066894B1110C9413
:100C3000F50608950E94DA0688F09F5798F0B92FBC
:100C40009927B751B0F0E1F0660F771F881F991F01
:100C50001AF0BA95C9F714C0B13091F00E94F406A9
:100C6000B1E008950C94F406672F782F8827B85FB9
:100C700039F0B93FCCF3869577956795B395D9F759
:100C80003EF490958095709561957F4F8F4F9F4F63
:100C90000895E89409C097FB3EF49095809570956F
:100CA00061957F4F8F4F9F4F9923A9F0F92F96E9B8
:100CB000BB279395F695879577956795B795F1112D
:100CC000F8CFFAF4BB0F11F460FF1BC06F5F7F4FCA
:100CD0008F4F9F4F16C0882311F096E911C07723DC
:100CE00021F09EE8872F762F05C0662371F096E8E5
:100CF000862F70E060E02AF09A95660F771F881FB4
:100D0000DAF7880F9695879597F90895990F000857
:100D1000550FAA0BE0E8FEEF16161706E807F907CD
:100D2000C0F012161306E407F50798F0621B730B68
:100D3000840B950B39F40A2661F0232B242B252BE9
:100D400021F408950A2609F4A140A6958FEF811D8C
:100D5000811D089597F99F6780E870E060E008952D
:100D60009FEF80EC089500240A94161617061806C3
:100D70000906089500240A9412161306140605069F
:100D80000895092E0394000C11F4882352F0BB0F30
:100D900040F4BF2B11F460FF04C06F5F7F4F8F4F93
:100DA0009F4F089557FD9058440F551F59F05F3FCE
:100DB00071F04795880F97FB991F61F09F3F79F07D
:100DC00087950895121613061406551FF2CF4695FF
:100DD000F1DF08C0161617061806991FF1CF869581
:100DE0007105610508940895E894BB276627772765
:100DF000CB0197F908950E94860608F48FEF0895B5
:100E00000E9413070C94C1060E94B30638F00E949A
:100E1000BA0620F0952311F00C94AA060C94B006A3
:100E200011240C94F5060E94D20670F3959FC1F32D
:100E3000950F50E0551F629FF001729FBB27F00D88
:100E4000B11D639FAA27F00DB11DAA1F649F6627DD
:100E5000B00DA11D661F829F2227B00DA11D621F2C
:100E6000739FB00DA11D621F839FA00D611D221FE6
:100E7000749F3327A00D611D231F849F600D211DCA
:100E8000822F762F6A2F11249F5750409AF0F1F04D
:100E900088234AF0EE0FFF1FBB1F661F771F881FB6
:100EA00091505040A9F79E3F510580F00C94AA063E
:100EB0000C94F5065F3FE4F3983ED4F3869577955E
:100EC0006795B795F795E7959F5FC1F7FE2B880F5C
:100ED000911D9695879597F90895BB274A3031F46F
:100EE000992322F4BDE2909581959F4F0C94790748
:100EF000BB27FB015527AA27880F991FAA1FA417F4
:100F000010F0A41B83955051B9F7A05DAA3308F0E7
:100F1000A95DA193009779F7B111B1931192CB011B
:100F20000C949207DC01FC01672F71917723E1F7A4
:100F3000329704C07C916D9370836291AE17BF07A6
:080F4000C8F30895F894FFCFF7
:100F480044696769743A20202000466C6F6F723AD2
:020F5800200077
:00000001FF
